{
  "contractName": "ERC721Connector",
  "abi": [
    {
      "inputs": [
        {
          "internalType": "string",
          "name": "name",
          "type": "string"
        },
        {
          "internalType": "string",
          "name": "symbol",
          "type": "string"
        }
      ],
      "stateMutability": "nonpayable",
      "type": "constructor"
    },
    {
      "anonymous": false,
      "inputs": [
        {
          "indexed": true,
          "internalType": "address",
          "name": "_owner",
          "type": "address"
        },
        {
          "indexed": true,
          "internalType": "address",
          "name": "_approved",
          "type": "address"
        },
        {
          "indexed": true,
          "internalType": "uint256",
          "name": "_tokenId",
          "type": "uint256"
        }
      ],
      "name": "Approvals",
      "type": "event"
    },
    {
      "anonymous": false,
      "inputs": [
        {
          "indexed": true,
          "internalType": "address",
          "name": "_from",
          "type": "address"
        },
        {
          "indexed": true,
          "internalType": "address",
          "name": "_to",
          "type": "address"
        },
        {
          "indexed": true,
          "internalType": "uint256",
          "name": "_tokenId",
          "type": "uint256"
        }
      ],
      "name": "Transfer",
      "type": "event"
    },
    {
      "inputs": [
        {
          "internalType": "address",
          "name": "_to",
          "type": "address"
        },
        {
          "internalType": "uint256",
          "name": "_tokenId",
          "type": "uint256"
        }
      ],
      "name": "approval",
      "outputs": [],
      "stateMutability": "nonpayable",
      "type": "function"
    },
    {
      "inputs": [
        {
          "internalType": "address",
          "name": "_owner",
          "type": "address"
        }
      ],
      "name": "balanceOf",
      "outputs": [
        {
          "internalType": "uint256",
          "name": "",
          "type": "uint256"
        }
      ],
      "stateMutability": "view",
      "type": "function"
    },
    {
      "inputs": [
        {
          "internalType": "uint256",
          "name": "tokenId",
          "type": "uint256"
        }
      ],
      "name": "burn",
      "outputs": [],
      "stateMutability": "nonpayable",
      "type": "function"
    },
    {
      "inputs": [],
      "name": "name",
      "outputs": [
        {
          "internalType": "string",
          "name": "",
          "type": "string"
        }
      ],
      "stateMutability": "view",
      "type": "function"
    },
    {
      "inputs": [
        {
          "internalType": "uint256",
          "name": "_tokenId",
          "type": "uint256"
        }
      ],
      "name": "ownerOf",
      "outputs": [
        {
          "internalType": "address",
          "name": "",
          "type": "address"
        }
      ],
      "stateMutability": "view",
      "type": "function"
    },
    {
      "inputs": [
        {
          "internalType": "bytes4",
          "name": "interfaceID",
          "type": "bytes4"
        }
      ],
      "name": "supportsInterface",
      "outputs": [
        {
          "internalType": "bool",
          "name": "",
          "type": "bool"
        }
      ],
      "stateMutability": "view",
      "type": "function"
    },
    {
      "inputs": [],
      "name": "symbol",
      "outputs": [
        {
          "internalType": "string",
          "name": "",
          "type": "string"
        }
      ],
      "stateMutability": "view",
      "type": "function"
    },
    {
      "inputs": [
        {
          "internalType": "uint256",
          "name": "index",
          "type": "uint256"
        }
      ],
      "name": "tokenByIndex",
      "outputs": [
        {
          "internalType": "uint256",
          "name": "",
          "type": "uint256"
        }
      ],
      "stateMutability": "view",
      "type": "function"
    },
    {
      "inputs": [
        {
          "internalType": "address",
          "name": "owner",
          "type": "address"
        },
        {
          "internalType": "uint256",
          "name": "index",
          "type": "uint256"
        }
      ],
      "name": "tokenOfOwnerByIndex",
      "outputs": [
        {
          "internalType": "uint256",
          "name": "",
          "type": "uint256"
        }
      ],
      "stateMutability": "view",
      "type": "function"
    },
    {
      "inputs": [],
      "name": "totalSupply",
      "outputs": [
        {
          "internalType": "uint256",
          "name": "",
          "type": "uint256"
        }
      ],
      "stateMutability": "view",
      "type": "function"
    },
    {
      "inputs": [
        {
          "internalType": "address",
          "name": "_from",
          "type": "address"
        },
        {
          "internalType": "address",
          "name": "_to",
          "type": "address"
        },
        {
          "internalType": "uint256",
          "name": "_tokenId",
          "type": "uint256"
        }
      ],
      "name": "transferFrom",
      "outputs": [],
      "stateMutability": "nonpayable",
      "type": "function"
    }
  ],
  "bytecode": "0x60806040523480156200001157600080fd5b5060405162001cc638038062001cc683398181016040528101906200003791906200052a565b81816200006a7f1584ba3821f2482cfd183eacb8962ebf3b6b7785a696f73fa327cc1d1b8847ba6200020560201b60201c565b620000df7f8230223f691b981717299fae9549350a0d894555723531f02108b1f522c1a7977f6da5e1284143cdd2d15038a59bde3be031250f00291d64494c12d967b3a4e0c37fc53637662700e6c65104059db8bba34439e0c32483ab7c34e3ccae52c739549518186200020560201b60201c565b8160019080519060200190620000f7929190620002dd565b50806002908051906020019062000110929190620002dd565b505050620001887f22c82707ba960a14c7592ffb6b8cfaa073fed0048a84cc7fa41f6b5bd8e7f2e47f3a6eb71757dfc6e784c1459d26270140c2c147d95ca985c80026fc5301c3eca17f8a7e378434598edc36d108689a030cbc9d7d465de4f74c71bae1028eed6a881b18186200020560201b60201c565b620001fd7f8230223f691b981717299fae9549350a0d894555723531f02108b1f522c1a7977f6da5e1284143cdd2d15038a59bde3be031250f00291d64494c12d967b3a4e0c37fc53637662700e6c65104059db8bba34439e0c32483ab7c34e3ccae52c739549518186200020560201b60201c565b505062000697565b63ffffffff60e01b817bffffffffffffffffffffffffffffffffffffffffffffffffffffffff1916141562000271576040517f08c379a0000000000000000000000000000000000000000000000000000000008152600401620002689062000610565b60405180910390fd5b6001600080837bffffffffffffffffffffffffffffffffffffffffffffffffffffffff19167bffffffffffffffffffffffffffffffffffffffffffffffffffffffff1916815260200190815260200160002060006101000a81548160ff02191690831515021790555050565b828054620002eb9062000661565b90600052602060002090601f0160209004810192826200030f57600085556200035b565b82601f106200032a57805160ff19168380011785556200035b565b828001600101855582156200035b579182015b828111156200035a5782518255916020019190600101906200033d565b5b5090506200036a91906200036e565b5090565b5b80821115620003895760008160009055506001016200036f565b5090565b6000604051905090565b600080fd5b600080fd5b600080fd5b600080fd5b6000601f19601f8301169050919050565b7f4e487b7100000000000000000000000000000000000000000000000000000000600052604160045260246000fd5b620003f682620003ab565b810181811067ffffffffffffffff82111715620004185762000417620003bc565b5b80604052505050565b60006200042d6200038d565b90506200043b8282620003eb565b919050565b600067ffffffffffffffff8211156200045e576200045d620003bc565b5b6200046982620003ab565b9050602081019050919050565b60005b838110156200049657808201518184015260208101905062000479565b83811115620004a6576000848401525b50505050565b6000620004c3620004bd8462000440565b62000421565b905082815260208101848484011115620004e257620004e1620003a6565b5b620004ef84828562000476565b509392505050565b600082601f8301126200050f576200050e620003a1565b5b815162000521848260208601620004ac565b91505092915050565b6000806040838503121562000544576200054362000397565b5b600083015167ffffffffffffffff8111156200056557620005646200039c565b5b6200057385828601620004f7565b925050602083015167ffffffffffffffff8111156200059757620005966200039c565b5b620005a585828601620004f7565b9150509250929050565b600082825260208201905092915050565b7f696e76616c696420696e74657266616365207265717565737400000000000000600082015250565b6000620005f8601983620005af565b91506200060582620005c0565b602082019050919050565b600060208201905081810360008301526200062b81620005e9565b9050919050565b7f4e487b7100000000000000000000000000000000000000000000000000000000600052602260045260246000fd5b600060028204905060018216806200067a57607f821691505b6020821081141562000691576200069062000632565b5b50919050565b61161f80620006a76000396000f3fe608060405234801561001057600080fd5b50600436106100a95760003560e01c806342966c681161007157806342966c68146101665780634f6ccce7146101825780636352211e146101b257806370a08231146101e257806375247a581461021257806395d89b411461022e576100a9565b806301ffc9a7146100ae57806306fdde03146100de57806318160ddd146100fc57806323b872dd1461011a5780632f745c5914610136575b600080fd5b6100c860048036038101906100c39190610ddb565b61024c565b6040516100d59190610e23565b60405180910390f35b6100e66102b3565b6040516100f39190610ed7565b60405180910390f35b610104610345565b6040516101119190610f12565b60405180910390f35b610134600480360381019061012f9190610fb7565b610352565b005b610150600480360381019061014b919061100a565b610362565b60405161015d9190610f12565b60405180910390f35b610180600480360381019061017b919061104a565b610412565b005b61019c6004803603810190610197919061104a565b610467565b6040516101a99190610f12565b60405180910390f35b6101cc60048036038101906101c7919061104a565b6104d8565b6040516101d99190611086565b60405180910390f35b6101fc60048036038101906101f791906110a1565b61058a565b6040516102099190610f12565b60405180910390f35b61022c6004803603810190610227919061100a565b610642565b005b6102366107de565b6040516102439190610ed7565b60405180910390f35b6000806000837bffffffffffffffffffffffffffffffffffffffffffffffffffffffff19167bffffffffffffffffffffffffffffffffffffffffffffffffffffffff1916815260200190815260200160002060009054906101000a900460ff169050919050565b6060600180546102c2906110fd565b80601f01602080910402602001604051908101604052809291908181526020018280546102ee906110fd565b801561033b5780601f106103105761010080835404028352916020019161033b565b820191906000526020600020905b81548152906001019060200180831161031e57829003601f168201915b5050505050905090565b6000600680549050905090565b61035d838383610870565b505050565b600061036d8361058a565b82106103ae576040517f08c379a00000000000000000000000000000000000000000000000000000000081526004016103a59061117b565b60405180910390fd5b600860008473ffffffffffffffffffffffffffffffffffffffff1673ffffffffffffffffffffffffffffffffffffffff16815260200190815260200160002082815481106103ff576103fe61119b565b5b9060005260206000200154905092915050565b61041c3382610ab6565b61045b576040517f08c379a00000000000000000000000000000000000000000000000000000000081526004016104529061123c565b60405180910390fd5b61046481610b83565b50565b6000610471610345565b82106104b2576040517f08c379a00000000000000000000000000000000000000000000000000000000081526004016104a99061117b565b60405180910390fd5b600682815481106104c6576104c561119b565b5b90600052602060002001549050919050565b6000806003600084815260200190815260200160002060009054906101000a900473ffffffffffffffffffffffffffffffffffffffff169050600073ffffffffffffffffffffffffffffffffffffffff168173ffffffffffffffffffffffffffffffffffffffff161415610581576040517f08c379a0000000000000000000000000000000000000000000000000000000008152600401610578906112a8565b60405180910390fd5b80915050919050565b60008073ffffffffffffffffffffffffffffffffffffffff168273ffffffffffffffffffffffffffffffffffffffff1614156105fb576040517f08c379a00000000000000000000000000000000000000000000000000000000081526004016105f2906112a8565b60405180910390fd5b600460008373ffffffffffffffffffffffffffffffffffffffff1673ffffffffffffffffffffffffffffffffffffffff168152602001908152602001600020549050919050565b600061064d826104d8565b90508073ffffffffffffffffffffffffffffffffffffffff168373ffffffffffffffffffffffffffffffffffffffff1614156106be576040517f08c379a00000000000000000000000000000000000000000000000000000000081526004016106b590611314565b60405180910390fd5b3373ffffffffffffffffffffffffffffffffffffffff168173ffffffffffffffffffffffffffffffffffffffff161461072c576040517f08c379a000000000000000000000000000000000000000000000000000000000815260040161072390611380565b60405180910390fd5b826005600084815260200190815260200160002060006101000a81548173ffffffffffffffffffffffffffffffffffffffff021916908373ffffffffffffffffffffffffffffffffffffffff160217905550818373ffffffffffffffffffffffffffffffffffffffff168273ffffffffffffffffffffffffffffffffffffffff167f26163b36b8c330072c04a0a1b97cad1d2aaceabade81788f1ab6cf1eef0c66cc60405160405180910390a4505050565b6060600280546107ed906110fd565b80601f0160208091040260200160405190810160405280929190818152602001828054610819906110fd565b80156108665780601f1061083b57610100808354040283529160200191610866565b820191906000526020600020905b81548152906001019060200180831161084957829003601f168201915b5050505050905090565b600073ffffffffffffffffffffffffffffffffffffffff168273ffffffffffffffffffffffffffffffffffffffff1614156108e0576040517f08c379a00000000000000000000000000000000000000000000000000000000081526004016108d790611412565b60405180910390fd5b8273ffffffffffffffffffffffffffffffffffffffff16610900826104d8565b73ffffffffffffffffffffffffffffffffffffffff1614610956576040517f08c379a000000000000000000000000000000000000000000000000000000000815260040161094d906114a4565b60405180910390fd5b6001600460008573ffffffffffffffffffffffffffffffffffffffff1673ffffffffffffffffffffffffffffffffffffffff16815260200190815260200160002060008282546109a691906114f3565b925050819055506001600460008473ffffffffffffffffffffffffffffffffffffffff1673ffffffffffffffffffffffffffffffffffffffff16815260200190815260200160002060008282546109fd9190611527565b92505081905550816003600083815260200190815260200160002060006101000a81548173ffffffffffffffffffffffffffffffffffffffff021916908373ffffffffffffffffffffffffffffffffffffffff160217905550808273ffffffffffffffffffffffffffffffffffffffff168473ffffffffffffffffffffffffffffffffffffffff167fddf252ad1be2c89b69c2b068fc378daa952ba7f163c4a11628f55a4df523b3ef60405160405180910390a4505050565b6000610ac182610c87565b610b00576040517f08c379a0000000000000000000000000000000000000000000000000000000008152600401610af7906115c9565b60405180910390fd5b6000610b0b836104d8565b90508073ffffffffffffffffffffffffffffffffffffffff168473ffffffffffffffffffffffffffffffffffffffff161480610b7a57508373ffffffffffffffffffffffffffffffffffffffff16610b6284610cf9565b73ffffffffffffffffffffffffffffffffffffffff16145b91505092915050565b6000610b8e826104d8565b9050610b9982610cf9565b506001600460008373ffffffffffffffffffffffffffffffffffffffff1673ffffffffffffffffffffffffffffffffffffffff1681526020019081526020016000206000828254610bea91906114f3565b925050819055506003600083815260200190815260200160002060006101000a81549073ffffffffffffffffffffffffffffffffffffffff021916905581600073ffffffffffffffffffffffffffffffffffffffff168273ffffffffffffffffffffffffffffffffffffffff167fddf252ad1be2c89b69c2b068fc378daa952ba7f163c4a11628f55a4df523b3ef60405160405180910390a45050565b6000806003600084815260200190815260200160002060009054906101000a900473ffffffffffffffffffffffffffffffffffffffff169050600073ffffffffffffffffffffffffffffffffffffffff168173ffffffffffffffffffffffffffffffffffffffff161415915050919050565b6000610d04826104d8565b73ffffffffffffffffffffffffffffffffffffffff166003600084815260200190815260200160002060009054906101000a900473ffffffffffffffffffffffffffffffffffffffff1673ffffffffffffffffffffffffffffffffffffffff1614610d6e57600080fd5b610d77826104d8565b9050919050565b600080fd5b60007fffffffff0000000000000000000000000000000000000000000000000000000082169050919050565b610db881610d83565b8114610dc357600080fd5b50565b600081359050610dd581610daf565b92915050565b600060208284031215610df157610df0610d7e565b5b6000610dff84828501610dc6565b91505092915050565b60008115159050919050565b610e1d81610e08565b82525050565b6000602082019050610e386000830184610e14565b92915050565b600081519050919050565b600082825260208201905092915050565b60005b83811015610e78578082015181840152602081019050610e5d565b83811115610e87576000848401525b50505050565b6000601f19601f8301169050919050565b6000610ea982610e3e565b610eb38185610e49565b9350610ec3818560208601610e5a565b610ecc81610e8d565b840191505092915050565b60006020820190508181036000830152610ef18184610e9e565b905092915050565b6000819050919050565b610f0c81610ef9565b82525050565b6000602082019050610f276000830184610f03565b92915050565b600073ffffffffffffffffffffffffffffffffffffffff82169050919050565b6000610f5882610f2d565b9050919050565b610f6881610f4d565b8114610f7357600080fd5b50565b600081359050610f8581610f5f565b92915050565b610f9481610ef9565b8114610f9f57600080fd5b50565b600081359050610fb181610f8b565b92915050565b600080600060608486031215610fd057610fcf610d7e565b5b6000610fde86828701610f76565b9350506020610fef86828701610f76565b925050604061100086828701610fa2565b9150509250925092565b6000806040838503121561102157611020610d7e565b5b600061102f85828601610f76565b925050602061104085828601610fa2565b9150509250929050565b6000602082840312156110605761105f610d7e565b5b600061106e84828501610fa2565b91505092915050565b61108081610f4d565b82525050565b600060208201905061109b6000830184611077565b92915050565b6000602082840312156110b7576110b6610d7e565b5b60006110c584828501610f76565b91505092915050565b7f4e487b7100000000000000000000000000000000000000000000000000000000600052602260045260246000fd5b6000600282049050600182168061111557607f821691505b60208210811415611129576111286110ce565b5b50919050565b7f676c6f62616c20696e646578206973206f7574206f6620626f756e6473210000600082015250565b6000611165601e83610e49565b91506111708261112f565b602082019050919050565b6000602082019050818103600083015261119481611158565b9050919050565b7f4e487b7100000000000000000000000000000000000000000000000000000000600052603260045260246000fd5b7f4552433732314275726e61626c653a2063616c6c6572206973206e6f74206f7760008201527f6e6572206e6f7220617070726f76656400000000000000000000000000000000602082015250565b6000611226603083610e49565b9150611231826111ca565b604082019050919050565b6000602082019050818103600083015261125581611219565b9050919050565b7f7468652061646472657373206e6f7420636f756c6420626520626c616e6b0000600082015250565b6000611292601e83610e49565b915061129d8261125c565b602082019050919050565b600060208201905081810360008301526112c181611285565b9050919050565b7f617070726f76616c20746f2063757272656e74206f776e657200000000000000600082015250565b60006112fe601983610e49565b9150611309826112c8565b602082019050919050565b6000602082019050818103600083015261132d816112f1565b9050919050565b7f63757272656e742063616c6c6572206973206e6f7420746865206f776e657200600082015250565b600061136a601f83610e49565b915061137582611334565b602082019050919050565b600060208201905081810360008301526113998161135d565b9050919050565b7f6572726f7220746f207472616e7366657220746f206365726f2061646472657360008201527f7300000000000000000000000000000000000000000000000000000000000000602082015250565b60006113fc602183610e49565b9150611407826113a0565b604082019050919050565b6000602082019050818103600083015261142b816113ef565b9050919050565b7f547279696e6720746f207472616e73666572206120746f6b656e20612074686560008201527f206164647265737320646f6573206e6f74206f776e2100000000000000000000602082015250565b600061148e603683610e49565b915061149982611432565b604082019050919050565b600060208201905081810360008301526114bd81611481565b9050919050565b7f4e487b7100000000000000000000000000000000000000000000000000000000600052601160045260246000fd5b60006114fe82610ef9565b915061150983610ef9565b92508282101561151c5761151b6114c4565b5b828203905092915050565b600061153282610ef9565b915061153d83610ef9565b9250827fffffffffffffffffffffffffffffffffffffffffffffffffffffffffffffffff03821115611572576115716114c4565b5b828201905092915050565b7f746865736520746f6b656e20646f6e2774206578697374000000000000000000600082015250565b60006115b3601783610e49565b91506115be8261157d565b602082019050919050565b600060208201905081810360008301526115e2816115a6565b905091905056fea26469706673582212200659ed1546ba3425c2995700bf7b69ccac501dd94c29ba8782752542325859ba64736f6c634300080b0033",
  "immutableReferences": {},
  "source": "// SPDX-License-Identifier: MIT\r\npragma solidity ^0.8.0;\r\n\r\nimport \"./ERC721Metada.sol\";\r\nimport \"./ERC721Enumerable.sol\";\r\n\r\ncontract ERC721Connector is ERC721Metada, ERC721Enumerable {\r\n\r\n    \r\n    constructor (string memory name, string memory symbol) ERC721Metada(name,symbol){\r\n        \r\n    }  \r\n\r\n\r\n\r\n\r\n}",
  "sourcePath": "C:\\Users\\Abraham\\Desktop\\nft-marketplace-starter-kit-main\\nft-marketplace-starter-kit-main\\src\\contracts\\ERC721Connector.sol",
  "compiler": {
    "name": "solc",
    "version": "0.8.11+commit.d7f03943.Emscripten.clang"
  },
  "schemaVersion": "3.4.5",
  "updatedAt": "2022-03-30T07:44:24.125Z",
  "devdoc": {
    "kind": "dev",
    "methods": {
      "supportsInterface(bytes4)": {
        "details": "Interface identification is specified in ERC-165. This function  uses less than 30,000 gas.",
        "params": {
          "interfaceID": "The interface identifier, as specified in ERC-165"
        },
        "returns": {
          "_0": "`true` if the contract implements `interfaceID` and  `interfaceID` is not 0xffffffff, `false` otherwise"
        }
      }
    },
    "version": 1
  },
  "userdoc": {
    "kind": "user",
    "methods": {
      "supportsInterface(bytes4)": {
        "notice": "Query if a contract implements an interface"
      }
    },
    "version": 1
  }
}