{
  "contractName": "KryptoBird",
  "abi": [
    {
      "inputs": [],
      "stateMutability": "nonpayable",
      "type": "constructor"
    },
    {
      "anonymous": false,
      "inputs": [
        {
          "indexed": true,
          "internalType": "address",
          "name": "_owner",
          "type": "address"
        },
        {
          "indexed": true,
          "internalType": "address",
          "name": "_approved",
          "type": "address"
        },
        {
          "indexed": true,
          "internalType": "uint256",
          "name": "_tokenId",
          "type": "uint256"
        }
      ],
      "name": "Approvals",
      "type": "event"
    },
    {
      "anonymous": false,
      "inputs": [
        {
          "indexed": true,
          "internalType": "address",
          "name": "_from",
          "type": "address"
        },
        {
          "indexed": true,
          "internalType": "address",
          "name": "_to",
          "type": "address"
        },
        {
          "indexed": true,
          "internalType": "uint256",
          "name": "_tokenId",
          "type": "uint256"
        }
      ],
      "name": "Transfer",
      "type": "event"
    },
    {
      "inputs": [
        {
          "internalType": "address",
          "name": "_to",
          "type": "address"
        },
        {
          "internalType": "uint256",
          "name": "_tokenId",
          "type": "uint256"
        }
      ],
      "name": "approval",
      "outputs": [],
      "stateMutability": "nonpayable",
      "type": "function"
    },
    {
      "inputs": [
        {
          "internalType": "address",
          "name": "_owner",
          "type": "address"
        }
      ],
      "name": "balanceOf",
      "outputs": [
        {
          "internalType": "uint256",
          "name": "",
          "type": "uint256"
        }
      ],
      "stateMutability": "view",
      "type": "function",
      "constant": true
    },
    {
      "inputs": [
        {
          "internalType": "uint256",
          "name": "tokenId",
          "type": "uint256"
        }
      ],
      "name": "burn",
      "outputs": [],
      "stateMutability": "nonpayable",
      "type": "function"
    },
    {
      "inputs": [
        {
          "internalType": "uint256",
          "name": "",
          "type": "uint256"
        }
      ],
      "name": "kryptoBirdz",
      "outputs": [
        {
          "internalType": "string",
          "name": "",
          "type": "string"
        }
      ],
      "stateMutability": "view",
      "type": "function",
      "constant": true
    },
    {
      "inputs": [],
      "name": "name",
      "outputs": [
        {
          "internalType": "string",
          "name": "",
          "type": "string"
        }
      ],
      "stateMutability": "view",
      "type": "function",
      "constant": true
    },
    {
      "inputs": [
        {
          "internalType": "uint256",
          "name": "_tokenId",
          "type": "uint256"
        }
      ],
      "name": "ownerOf",
      "outputs": [
        {
          "internalType": "address",
          "name": "",
          "type": "address"
        }
      ],
      "stateMutability": "view",
      "type": "function",
      "constant": true
    },
    {
      "inputs": [
        {
          "internalType": "bytes4",
          "name": "interfaceID",
          "type": "bytes4"
        }
      ],
      "name": "supportsInterface",
      "outputs": [
        {
          "internalType": "bool",
          "name": "",
          "type": "bool"
        }
      ],
      "stateMutability": "view",
      "type": "function",
      "constant": true
    },
    {
      "inputs": [],
      "name": "symbol",
      "outputs": [
        {
          "internalType": "string",
          "name": "",
          "type": "string"
        }
      ],
      "stateMutability": "view",
      "type": "function",
      "constant": true
    },
    {
      "inputs": [
        {
          "internalType": "uint256",
          "name": "index",
          "type": "uint256"
        }
      ],
      "name": "tokenByIndex",
      "outputs": [
        {
          "internalType": "uint256",
          "name": "",
          "type": "uint256"
        }
      ],
      "stateMutability": "view",
      "type": "function",
      "constant": true
    },
    {
      "inputs": [
        {
          "internalType": "address",
          "name": "owner",
          "type": "address"
        },
        {
          "internalType": "uint256",
          "name": "index",
          "type": "uint256"
        }
      ],
      "name": "tokenOfOwnerByIndex",
      "outputs": [
        {
          "internalType": "uint256",
          "name": "",
          "type": "uint256"
        }
      ],
      "stateMutability": "view",
      "type": "function",
      "constant": true
    },
    {
      "inputs": [],
      "name": "totalSupply",
      "outputs": [
        {
          "internalType": "uint256",
          "name": "",
          "type": "uint256"
        }
      ],
      "stateMutability": "view",
      "type": "function",
      "constant": true
    },
    {
      "inputs": [
        {
          "internalType": "address",
          "name": "_from",
          "type": "address"
        },
        {
          "internalType": "address",
          "name": "_to",
          "type": "address"
        },
        {
          "internalType": "uint256",
          "name": "_tokenId",
          "type": "uint256"
        }
      ],
      "name": "transferFrom",
      "outputs": [],
      "stateMutability": "nonpayable",
      "type": "function"
    },
    {
      "inputs": [
        {
          "internalType": "string",
          "name": "_kryptobirdz",
          "type": "string"
        }
      ],
      "name": "mint",
      "outputs": [],
      "stateMutability": "nonpayable",
      "type": "function"
    }
  ],
  "bytecode": "0x60806040523480156200001157600080fd5b506040518060400160405280600a81526020017f4b727970746f42697264000000000000000000000000000000000000000000008152506040518060400160405280600681526020017f4b424952445a00000000000000000000000000000000000000000000000000008152508181620000b17f1584ba3821f2482cfd183eacb8962ebf3b6b7785a696f73fa327cc1d1b8847ba6200024c60201b60201c565b620001267f8230223f691b981717299fae9549350a0d894555723531f02108b1f522c1a7977f6da5e1284143cdd2d15038a59bde3be031250f00291d64494c12d967b3a4e0c37fc53637662700e6c65104059db8bba34439e0c32483ab7c34e3ccae52c739549518186200024c60201b60201c565b81600190805190602001906200013e92919062000324565b5080600290805190602001906200015792919062000324565b505050620001cf7f22c82707ba960a14c7592ffb6b8cfaa073fed0048a84cc7fa41f6b5bd8e7f2e47f3a6eb71757dfc6e784c1459d26270140c2c147d95ca985c80026fc5301c3eca17f8a7e378434598edc36d108689a030cbc9d7d465de4f74c71bae1028eed6a881b18186200024c60201b60201c565b620002447f8230223f691b981717299fae9549350a0d894555723531f02108b1f522c1a7977f6da5e1284143cdd2d15038a59bde3be031250f00291d64494c12d967b3a4e0c37fc53637662700e6c65104059db8bba34439e0c32483ab7c34e3ccae52c739549518186200024c60201b60201c565b5050620004bc565b63ffffffff60e01b817bffffffffffffffffffffffffffffffffffffffffffffffffffffffff19161415620002b8576040517f08c379a0000000000000000000000000000000000000000000000000000000008152600401620002af9062000435565b60405180910390fd5b6001600080837bffffffffffffffffffffffffffffffffffffffffffffffffffffffff19167bffffffffffffffffffffffffffffffffffffffffffffffffffffffff1916815260200190815260200160002060006101000a81548160ff02191690831515021790555050565b828054620003329062000486565b90600052602060002090601f016020900481019282620003565760008555620003a2565b82601f106200037157805160ff1916838001178555620003a2565b82800160010185558215620003a2579182015b82811115620003a157825182559160200191906001019062000384565b5b509050620003b19190620003b5565b5090565b5b80821115620003d0576000816000905550600101620003b6565b5090565b600082825260208201905092915050565b7f696e76616c696420696e74657266616365207265717565737400000000000000600082015250565b60006200041d601983620003d4565b91506200042a82620003e5565b602082019050919050565b6000602082019050818103600083015262000450816200040e565b9050919050565b7f4e487b7100000000000000000000000000000000000000000000000000000000600052602260045260246000fd5b600060028204905060018216806200049f57607f821691505b60208210811415620004b657620004b562000457565b5b50919050565b611e7b80620004cc6000396000f3fe608060405234801561001057600080fd5b50600436106100cf5760003560e01c80634f6ccce71161008c57806375247a581161006657806375247a581461023857806393ab6e561461025457806395d89b4114610284578063d85d3d27146102a2576100cf565b80634f6ccce7146101a85780636352211e146101d857806370a0823114610208576100cf565b806301ffc9a7146100d457806306fdde031461010457806318160ddd1461012257806323b872dd146101405780632f745c591461015c57806342966c681461018c575b600080fd5b6100ee60048036038101906100e99190611368565b6102be565b6040516100fb91906113b0565b60405180910390f35b61010c610325565b6040516101199190611464565b60405180910390f35b61012a6103b7565b604051610137919061149f565b60405180910390f35b61015a60048036038101906101559190611544565b6103c4565b005b61017660048036038101906101719190611597565b6103d4565b604051610183919061149f565b60405180910390f35b6101a660048036038101906101a191906115d7565b610484565b005b6101c260048036038101906101bd91906115d7565b6104d9565b6040516101cf919061149f565b60405180910390f35b6101f260048036038101906101ed91906115d7565b61054a565b6040516101ff9190611613565b60405180910390f35b610222600480360381019061021d919061162e565b6105fc565b60405161022f919061149f565b60405180910390f35b610252600480360381019061024d9190611597565b6106b4565b005b61026e600480360381019061026991906115d7565b610850565b60405161027b9190611464565b60405180910390f35b61028c6108fc565b6040516102999190611464565b60405180910390f35b6102bc60048036038101906102b79190611790565b61098e565b005b6000806000837bffffffffffffffffffffffffffffffffffffffffffffffffffffffff19167bffffffffffffffffffffffffffffffffffffffffffffffffffffffff1916815260200190815260200160002060009054906101000a900460ff169050919050565b60606001805461033490611808565b80601f016020809104026020016040519081016040528092919081815260200182805461036090611808565b80156103ad5780601f10610382576101008083540402835291602001916103ad565b820191906000526020600020905b81548152906001019060200180831161039057829003601f168201915b5050505050905090565b6000600680549050905090565b6103cf838383610a91565b505050565b60006103df836105fc565b8210610420576040517f08c379a000000000000000000000000000000000000000000000000000000000815260040161041790611886565b60405180910390fd5b600860008473ffffffffffffffffffffffffffffffffffffffff1673ffffffffffffffffffffffffffffffffffffffff1681526020019081526020016000208281548110610471576104706118a6565b5b9060005260206000200154905092915050565b61048e3382610cd7565b6104cd576040517f08c379a00000000000000000000000000000000000000000000000000000000081526004016104c490611947565b60405180910390fd5b6104d681610da4565b50565b60006104e36103b7565b8210610524576040517f08c379a000000000000000000000000000000000000000000000000000000000815260040161051b90611886565b60405180910390fd5b60068281548110610538576105376118a6565b5b90600052602060002001549050919050565b6000806003600084815260200190815260200160002060009054906101000a900473ffffffffffffffffffffffffffffffffffffffff169050600073ffffffffffffffffffffffffffffffffffffffff168173ffffffffffffffffffffffffffffffffffffffff1614156105f3576040517f08c379a00000000000000000000000000000000000000000000000000000000081526004016105ea906119b3565b60405180910390fd5b80915050919050565b60008073ffffffffffffffffffffffffffffffffffffffff168273ffffffffffffffffffffffffffffffffffffffff16141561066d576040517f08c379a0000000000000000000000000000000000000000000000000000000008152600401610664906119b3565b60405180910390fd5b600460008373ffffffffffffffffffffffffffffffffffffffff1673ffffffffffffffffffffffffffffffffffffffff168152602001908152602001600020549050919050565b60006106bf8261054a565b90508073ffffffffffffffffffffffffffffffffffffffff168373ffffffffffffffffffffffffffffffffffffffff161415610730576040517f08c379a000000000000000000000000000000000000000000000000000000000815260040161072790611a1f565b60405180910390fd5b3373ffffffffffffffffffffffffffffffffffffffff168173ffffffffffffffffffffffffffffffffffffffff161461079e576040517f08c379a000000000000000000000000000000000000000000000000000000000815260040161079590611a8b565b60405180910390fd5b826005600084815260200190815260200160002060006101000a81548173ffffffffffffffffffffffffffffffffffffffff021916908373ffffffffffffffffffffffffffffffffffffffff160217905550818373ffffffffffffffffffffffffffffffffffffffff168273ffffffffffffffffffffffffffffffffffffffff167f26163b36b8c330072c04a0a1b97cad1d2aaceabade81788f1ab6cf1eef0c66cc60405160405180910390a4505050565b600a818154811061086057600080fd5b90600052602060002001600091509050805461087b90611808565b80601f01602080910402602001604051908101604052809291908181526020018280546108a790611808565b80156108f45780601f106108c9576101008083540402835291602001916108f4565b820191906000526020600020905b8154815290600101906020018083116108d757829003601f168201915b505050505081565b60606002805461090b90611808565b80601f016020809104026020016040519081016040528092919081815260200182805461093790611808565b80156109845780601f1061095957610100808354040283529160200191610984565b820191906000526020600020905b81548152906001019060200180831161096757829003601f168201915b5050505050905090565b600b8160405161099e9190611ae7565b908152602001604051809103902060009054906101000a900460ff16156109fa576040517f08c379a00000000000000000000000000000000000000000000000000000000081526004016109f190611b4a565b60405180910390fd5b600a81908060018154018082558091505060019003906000526020600020016000909190919091509080519060200190610a35929190611259565b5060006001600a80549050610a4a9190611b99565b9050610a563382610ea8565b6001600b83604051610a689190611ae7565b908152602001604051809103902060006101000a81548160ff0219169083151502179055505050565b600073ffffffffffffffffffffffffffffffffffffffff168273ffffffffffffffffffffffffffffffffffffffff161415610b01576040517f08c379a0000000000000000000000000000000000000000000000000000000008152600401610af890611c3f565b60405180910390fd5b8273ffffffffffffffffffffffffffffffffffffffff16610b218261054a565b73ffffffffffffffffffffffffffffffffffffffff1614610b77576040517f08c379a0000000000000000000000000000000000000000000000000000000008152600401610b6e90611cd1565b60405180910390fd5b6001600460008573ffffffffffffffffffffffffffffffffffffffff1673ffffffffffffffffffffffffffffffffffffffff1681526020019081526020016000206000828254610bc79190611b99565b925050819055506001600460008473ffffffffffffffffffffffffffffffffffffffff1673ffffffffffffffffffffffffffffffffffffffff1681526020019081526020016000206000828254610c1e9190611cf1565b92505081905550816003600083815260200190815260200160002060006101000a81548173ffffffffffffffffffffffffffffffffffffffff021916908373ffffffffffffffffffffffffffffffffffffffff160217905550808273ffffffffffffffffffffffffffffffffffffffff168473ffffffffffffffffffffffffffffffffffffffff167fddf252ad1be2c89b69c2b068fc378daa952ba7f163c4a11628f55a4df523b3ef60405160405180910390a4505050565b6000610ce282610ec9565b610d21576040517f08c379a0000000000000000000000000000000000000000000000000000000008152600401610d1890611d93565b60405180910390fd5b6000610d2c8361054a565b90508073ffffffffffffffffffffffffffffffffffffffff168473ffffffffffffffffffffffffffffffffffffffff161480610d9b57508373ffffffffffffffffffffffffffffffffffffffff16610d8384610f3b565b73ffffffffffffffffffffffffffffffffffffffff16145b91505092915050565b6000610daf8261054a565b9050610dba82610f3b565b506001600460008373ffffffffffffffffffffffffffffffffffffffff1673ffffffffffffffffffffffffffffffffffffffff1681526020019081526020016000206000828254610e0b9190611b99565b925050819055506003600083815260200190815260200160002060006101000a81549073ffffffffffffffffffffffffffffffffffffffff021916905581600073ffffffffffffffffffffffffffffffffffffffff168273ffffffffffffffffffffffffffffffffffffffff167fddf252ad1be2c89b69c2b068fc378daa952ba7f163c4a11628f55a4df523b3ef60405160405180910390a45050565b610eb28282610fc0565b610ebb8161114c565b610ec58282611195565b5050565b6000806003600084815260200190815260200160002060009054906101000a900473ffffffffffffffffffffffffffffffffffffffff169050600073ffffffffffffffffffffffffffffffffffffffff168173ffffffffffffffffffffffffffffffffffffffff161415915050919050565b6000610f468261054a565b73ffffffffffffffffffffffffffffffffffffffff166003600084815260200190815260200160002060009054906101000a900473ffffffffffffffffffffffffffffffffffffffff1673ffffffffffffffffffffffffffffffffffffffff1614610fb057600080fd5b610fb98261054a565b9050919050565b600073ffffffffffffffffffffffffffffffffffffffff168273ffffffffffffffffffffffffffffffffffffffff161415611030576040517f08c379a000000000000000000000000000000000000000000000000000000000815260040161102790611e25565b60405180910390fd5b61103981610ec9565b1561104357600080fd5b816003600083815260200190815260200160002060006101000a81548173ffffffffffffffffffffffffffffffffffffffff021916908373ffffffffffffffffffffffffffffffffffffffff1602179055506001600460008473ffffffffffffffffffffffffffffffffffffffff1673ffffffffffffffffffffffffffffffffffffffff16815260200190815260200160002060008282546110e59190611cf1565b92505081905550808273ffffffffffffffffffffffffffffffffffffffff16600073ffffffffffffffffffffffffffffffffffffffff167fddf252ad1be2c89b69c2b068fc378daa952ba7f163c4a11628f55a4df523b3ef60405160405180910390a45050565b6006805490506007600083815260200190815260200160002081905550600681908060018154018082558091505060019003906000526020600020016000909190919091505550565b600860008373ffffffffffffffffffffffffffffffffffffffff1673ffffffffffffffffffffffffffffffffffffffff168152602001908152602001600020805490506009600083815260200190815260200160002081905550600860008373ffffffffffffffffffffffffffffffffffffffff1673ffffffffffffffffffffffffffffffffffffffff1681526020019081526020016000208190806001815401808255809150506001900390600052602060002001600090919091909150555050565b82805461126590611808565b90600052602060002090601f01602090048101928261128757600085556112ce565b82601f106112a057805160ff19168380011785556112ce565b828001600101855582156112ce579182015b828111156112cd5782518255916020019190600101906112b2565b5b5090506112db91906112df565b5090565b5b808211156112f85760008160009055506001016112e0565b5090565b6000604051905090565b600080fd5b600080fd5b60007fffffffff0000000000000000000000000000000000000000000000000000000082169050919050565b61134581611310565b811461135057600080fd5b50565b6000813590506113628161133c565b92915050565b60006020828403121561137e5761137d611306565b5b600061138c84828501611353565b91505092915050565b60008115159050919050565b6113aa81611395565b82525050565b60006020820190506113c560008301846113a1565b92915050565b600081519050919050565b600082825260208201905092915050565b60005b838110156114055780820151818401526020810190506113ea565b83811115611414576000848401525b50505050565b6000601f19601f8301169050919050565b6000611436826113cb565b61144081856113d6565b93506114508185602086016113e7565b6114598161141a565b840191505092915050565b6000602082019050818103600083015261147e818461142b565b905092915050565b6000819050919050565b61149981611486565b82525050565b60006020820190506114b46000830184611490565b92915050565b600073ffffffffffffffffffffffffffffffffffffffff82169050919050565b60006114e5826114ba565b9050919050565b6114f5816114da565b811461150057600080fd5b50565b600081359050611512816114ec565b92915050565b61152181611486565b811461152c57600080fd5b50565b60008135905061153e81611518565b92915050565b60008060006060848603121561155d5761155c611306565b5b600061156b86828701611503565b935050602061157c86828701611503565b925050604061158d8682870161152f565b9150509250925092565b600080604083850312156115ae576115ad611306565b5b60006115bc85828601611503565b92505060206115cd8582860161152f565b9150509250929050565b6000602082840312156115ed576115ec611306565b5b60006115fb8482850161152f565b91505092915050565b61160d816114da565b82525050565b60006020820190506116286000830184611604565b92915050565b60006020828403121561164457611643611306565b5b600061165284828501611503565b91505092915050565b600080fd5b600080fd5b7f4e487b7100000000000000000000000000000000000000000000000000000000600052604160045260246000fd5b61169d8261141a565b810181811067ffffffffffffffff821117156116bc576116bb611665565b5b80604052505050565b60006116cf6112fc565b90506116db8282611694565b919050565b600067ffffffffffffffff8211156116fb576116fa611665565b5b6117048261141a565b9050602081019050919050565b82818337600083830152505050565b600061173361172e846116e0565b6116c5565b90508281526020810184848401111561174f5761174e611660565b5b61175a848285611711565b509392505050565b600082601f8301126117775761177661165b565b5b8135611787848260208601611720565b91505092915050565b6000602082840312156117a6576117a5611306565b5b600082013567ffffffffffffffff8111156117c4576117c361130b565b5b6117d084828501611762565b91505092915050565b7f4e487b7100000000000000000000000000000000000000000000000000000000600052602260045260246000fd5b6000600282049050600182168061182057607f821691505b60208210811415611834576118336117d9565b5b50919050565b7f676c6f62616c20696e646578206973206f7574206f6620626f756e6473210000600082015250565b6000611870601e836113d6565b915061187b8261183a565b602082019050919050565b6000602082019050818103600083015261189f81611863565b9050919050565b7f4e487b7100000000000000000000000000000000000000000000000000000000600052603260045260246000fd5b7f4552433732314275726e61626c653a2063616c6c6572206973206e6f74206f7760008201527f6e6572206e6f7220617070726f76656400000000000000000000000000000000602082015250565b60006119316030836113d6565b915061193c826118d5565b604082019050919050565b6000602082019050818103600083015261196081611924565b9050919050565b7f7468652061646472657373206e6f7420636f756c6420626520626c616e6b0000600082015250565b600061199d601e836113d6565b91506119a882611967565b602082019050919050565b600060208201905081810360008301526119cc81611990565b9050919050565b7f617070726f76616c20746f2063757272656e74206f776e657200000000000000600082015250565b6000611a096019836113d6565b9150611a14826119d3565b602082019050919050565b60006020820190508181036000830152611a38816119fc565b9050919050565b7f63757272656e742063616c6c6572206973206e6f7420746865206f776e657200600082015250565b6000611a75601f836113d6565b9150611a8082611a3f565b602082019050919050565b60006020820190508181036000830152611aa481611a68565b9050919050565b600081905092915050565b6000611ac1826113cb565b611acb8185611aab565b9350611adb8185602086016113e7565b80840191505092915050565b6000611af38284611ab6565b915081905092915050565b7f45737465206e6674207961206578697374650000000000000000000000000000600082015250565b6000611b346012836113d6565b9150611b3f82611afe565b602082019050919050565b60006020820190508181036000830152611b6381611b27565b9050919050565b7f4e487b7100000000000000000000000000000000000000000000000000000000600052601160045260246000fd5b6000611ba482611486565b9150611baf83611486565b925082821015611bc257611bc1611b6a565b5b828203905092915050565b7f6572726f7220746f207472616e7366657220746f206365726f2061646472657360008201527f7300000000000000000000000000000000000000000000000000000000000000602082015250565b6000611c296021836113d6565b9150611c3482611bcd565b604082019050919050565b60006020820190508181036000830152611c5881611c1c565b9050919050565b7f547279696e6720746f207472616e73666572206120746f6b656e20612074686560008201527f206164647265737320646f6573206e6f74206f776e2100000000000000000000602082015250565b6000611cbb6036836113d6565b9150611cc682611c5f565b604082019050919050565b60006020820190508181036000830152611cea81611cae565b9050919050565b6000611cfc82611486565b9150611d0783611486565b9250827fffffffffffffffffffffffffffffffffffffffffffffffffffffffffffffffff03821115611d3c57611d3b611b6a565b5b828201905092915050565b7f746865736520746f6b656e20646f6e2774206578697374000000000000000000600082015250565b6000611d7d6017836113d6565b9150611d8882611d47565b602082019050919050565b60006020820190508181036000830152611dac81611d70565b9050919050565b7f4552433732313a206d696e74696e6720746f20746865207a65726f206164647260008201527f6573000000000000000000000000000000000000000000000000000000000000602082015250565b6000611e0f6022836113d6565b9150611e1a82611db3565b604082019050919050565b60006020820190508181036000830152611e3e81611e02565b905091905056fea2646970667358221220e473d9a4bafb453492b42f780ece70c26b46def5f8847ed072cf5cab1cb656f164736f6c634300080b0033",
  "immutableReferences": {},
  "source": "// SPDX-License-Identifier: MIT\r\npragma solidity ^0.8.0;\r\n\r\nimport './ERC721Connector.sol';\r\ncontract KryptoBird is ERC721Connector{\r\n\r\n    string [] public kryptoBirdz;\r\n\r\n    mapping (string=>bool) _kryptoBirdzExist;\r\n\r\n\r\n\r\n    function mint(string memory _kryptobirdz) public{\r\n\r\n        require(!_kryptoBirdzExist[_kryptobirdz], 'Este nft ya existe');        \r\n        //crear un espacio dentro de la cadena para el nft unico\r\n        kryptoBirdz.push(_kryptobirdz);\r\n        uint _id=kryptoBirdz.length-1;\r\n\r\n        //emplea la funcion almacenada en ERC721 _mint para crear el id unico del nft\r\n        _mint(msg.sender, _id);\r\n\r\n        //verificar si el id del nft no es nulo y existe dentro de la lista \r\n        _kryptoBirdzExist[_kryptobirdz]=true;\r\n    }\r\n    constructor() ERC721Connector(\"KryptoBird\",\"KBIRDZ\"){\r\n\r\n    }\r\n}",
  "sourcePath": "C:\\Users\\Abraham\\Desktop\\nft-marketplace-starter-kit-main\\nft-marketplace-starter-kit-main\\src\\contracts\\KryptoBird.sol",
  "compiler": {
    "name": "solc",
    "version": "0.8.11+commit.d7f03943.Emscripten.clang"
  },
  "schemaVersion": "3.4.5",
  "updatedAt": "2022-03-30T07:44:35.786Z",
  "networkType": "ethereum",
  "devdoc": {
    "kind": "dev",
    "methods": {
      "supportsInterface(bytes4)": {
        "details": "Interface identification is specified in ERC-165. This function  uses less than 30,000 gas.",
        "params": {
          "interfaceID": "The interface identifier, as specified in ERC-165"
        },
        "returns": {
          "_0": "`true` if the contract implements `interfaceID` and  `interfaceID` is not 0xffffffff, `false` otherwise"
        }
      }
    },
    "version": 1
  },
  "userdoc": {
    "kind": "user",
    "methods": {
      "supportsInterface(bytes4)": {
        "notice": "Query if a contract implements an interface"
      }
    },
    "version": 1
  }
}