{
  "contractName": "ERC721",
  "abi": [
    {
      "inputs": [],
      "stateMutability": "nonpayable",
      "type": "constructor"
    },
    {
      "anonymous": false,
      "inputs": [
        {
          "indexed": true,
          "internalType": "address",
          "name": "_owner",
          "type": "address"
        },
        {
          "indexed": true,
          "internalType": "address",
          "name": "_approved",
          "type": "address"
        },
        {
          "indexed": true,
          "internalType": "uint256",
          "name": "_tokenId",
          "type": "uint256"
        }
      ],
      "name": "Approvals",
      "type": "event"
    },
    {
      "anonymous": false,
      "inputs": [
        {
          "indexed": true,
          "internalType": "address",
          "name": "_from",
          "type": "address"
        },
        {
          "indexed": true,
          "internalType": "address",
          "name": "_to",
          "type": "address"
        },
        {
          "indexed": true,
          "internalType": "uint256",
          "name": "_tokenId",
          "type": "uint256"
        }
      ],
      "name": "Transfer",
      "type": "event"
    },
    {
      "inputs": [
        {
          "internalType": "bytes4",
          "name": "interfaceID",
          "type": "bytes4"
        }
      ],
      "name": "supportsInterface",
      "outputs": [
        {
          "internalType": "bool",
          "name": "",
          "type": "bool"
        }
      ],
      "stateMutability": "view",
      "type": "function"
    },
    {
      "inputs": [
        {
          "internalType": "address",
          "name": "_owner",
          "type": "address"
        }
      ],
      "name": "balanceOf",
      "outputs": [
        {
          "internalType": "uint256",
          "name": "",
          "type": "uint256"
        }
      ],
      "stateMutability": "view",
      "type": "function"
    },
    {
      "inputs": [
        {
          "internalType": "uint256",
          "name": "_tokenId",
          "type": "uint256"
        }
      ],
      "name": "ownerOf",
      "outputs": [
        {
          "internalType": "address",
          "name": "",
          "type": "address"
        }
      ],
      "stateMutability": "view",
      "type": "function"
    },
    {
      "inputs": [
        {
          "internalType": "address",
          "name": "_from",
          "type": "address"
        },
        {
          "internalType": "address",
          "name": "_to",
          "type": "address"
        },
        {
          "internalType": "uint256",
          "name": "_tokenId",
          "type": "uint256"
        }
      ],
      "name": "transferFrom",
      "outputs": [],
      "stateMutability": "nonpayable",
      "type": "function"
    },
    {
      "inputs": [
        {
          "internalType": "address",
          "name": "_to",
          "type": "address"
        },
        {
          "internalType": "uint256",
          "name": "_tokenId",
          "type": "uint256"
        }
      ],
      "name": "approval",
      "outputs": [],
      "stateMutability": "nonpayable",
      "type": "function"
    },
    {
      "inputs": [
        {
          "internalType": "uint256",
          "name": "tokenId",
          "type": "uint256"
        }
      ],
      "name": "burn",
      "outputs": [],
      "stateMutability": "nonpayable",
      "type": "function"
    }
  ],
  "bytecode": "0x60806040523480156200001157600080fd5b50620000437f1584ba3821f2482cfd183eacb8962ebf3b6b7785a696f73fa327cc1d1b8847ba620000be60201b60201c565b620000b87f22c82707ba960a14c7592ffb6b8cfaa073fed0048a84cc7fa41f6b5bd8e7f2e47f3a6eb71757dfc6e784c1459d26270140c2c147d95ca985c80026fc5301c3eca17f8a7e378434598edc36d108689a030cbc9d7d465de4f74c71bae1028eed6a881b1818620000be60201b60201c565b62000219565b63ffffffff60e01b817bffffffffffffffffffffffffffffffffffffffffffffffffffffffff191614156200012a576040517f08c379a00000000000000000000000000000000000000000000000000000000081526004016200012190620001f7565b60405180910390fd5b6001600080837bffffffffffffffffffffffffffffffffffffffffffffffffffffffff19167bffffffffffffffffffffffffffffffffffffffffffffffffffffffff1916815260200190815260200160002060006101000a81548160ff02191690831515021790555050565b600082825260208201905092915050565b7f696e76616c696420696e74657266616365207265717565737400000000000000600082015250565b6000620001df60198362000196565b9150620001ec82620001a7565b602082019050919050565b600060208201905081810360008301526200021281620001d0565b9050919050565b61112680620002296000396000f3fe608060405234801561001057600080fd5b50600436106100625760003560e01c806301ffc9a71461006757806323b872dd1461009757806342966c68146100b35780636352211e146100cf57806370a08231146100ff57806375247a581461012f575b600080fd5b610081600480360381019061007c9190610a88565b61014b565b60405161008e9190610ad0565b60405180910390f35b6100b160048036038101906100ac9190610b7f565b6101b2565b005b6100cd60048036038101906100c89190610bd2565b6101c2565b005b6100e960048036038101906100e49190610bd2565b610217565b6040516100f69190610c0e565b60405180910390f35b61011960048036038101906101149190610c29565b6102c9565b6040516101269190610c65565b60405180910390f35b61014960048036038101906101449190610c80565b610381565b005b6000806000837bffffffffffffffffffffffffffffffffffffffffffffffffffffffff19167bffffffffffffffffffffffffffffffffffffffffffffffffffffffff1916815260200190815260200160002060009054906101000a900460ff169050919050565b6101bd83838361051d565b505050565b6101cc3382610763565b61020b576040517f08c379a000000000000000000000000000000000000000000000000000000000815260040161020290610d43565b60405180910390fd5b61021481610830565b50565b6000806001600084815260200190815260200160002060009054906101000a900473ffffffffffffffffffffffffffffffffffffffff169050600073ffffffffffffffffffffffffffffffffffffffff168173ffffffffffffffffffffffffffffffffffffffff1614156102c0576040517f08c379a00000000000000000000000000000000000000000000000000000000081526004016102b790610daf565b60405180910390fd5b80915050919050565b60008073ffffffffffffffffffffffffffffffffffffffff168273ffffffffffffffffffffffffffffffffffffffff16141561033a576040517f08c379a000000000000000000000000000000000000000000000000000000000815260040161033190610daf565b60405180910390fd5b600260008373ffffffffffffffffffffffffffffffffffffffff1673ffffffffffffffffffffffffffffffffffffffff168152602001908152602001600020549050919050565b600061038c82610217565b90508073ffffffffffffffffffffffffffffffffffffffff168373ffffffffffffffffffffffffffffffffffffffff1614156103fd576040517f08c379a00000000000000000000000000000000000000000000000000000000081526004016103f490610e1b565b60405180910390fd5b3373ffffffffffffffffffffffffffffffffffffffff168173ffffffffffffffffffffffffffffffffffffffff161461046b576040517f08c379a000000000000000000000000000000000000000000000000000000000815260040161046290610e87565b60405180910390fd5b826003600084815260200190815260200160002060006101000a81548173ffffffffffffffffffffffffffffffffffffffff021916908373ffffffffffffffffffffffffffffffffffffffff160217905550818373ffffffffffffffffffffffffffffffffffffffff168273ffffffffffffffffffffffffffffffffffffffff167f26163b36b8c330072c04a0a1b97cad1d2aaceabade81788f1ab6cf1eef0c66cc60405160405180910390a4505050565b600073ffffffffffffffffffffffffffffffffffffffff168273ffffffffffffffffffffffffffffffffffffffff16141561058d576040517f08c379a000000000000000000000000000000000000000000000000000000000815260040161058490610f19565b60405180910390fd5b8273ffffffffffffffffffffffffffffffffffffffff166105ad82610217565b73ffffffffffffffffffffffffffffffffffffffff1614610603576040517f08c379a00000000000000000000000000000000000000000000000000000000081526004016105fa90610fab565b60405180910390fd5b6001600260008573ffffffffffffffffffffffffffffffffffffffff1673ffffffffffffffffffffffffffffffffffffffff16815260200190815260200160002060008282546106539190610ffa565b925050819055506001600260008473ffffffffffffffffffffffffffffffffffffffff1673ffffffffffffffffffffffffffffffffffffffff16815260200190815260200160002060008282546106aa919061102e565b92505081905550816001600083815260200190815260200160002060006101000a81548173ffffffffffffffffffffffffffffffffffffffff021916908373ffffffffffffffffffffffffffffffffffffffff160217905550808273ffffffffffffffffffffffffffffffffffffffff168473ffffffffffffffffffffffffffffffffffffffff167fddf252ad1be2c89b69c2b068fc378daa952ba7f163c4a11628f55a4df523b3ef60405160405180910390a4505050565b600061076e82610934565b6107ad576040517f08c379a00000000000000000000000000000000000000000000000000000000081526004016107a4906110d0565b60405180910390fd5b60006107b883610217565b90508073ffffffffffffffffffffffffffffffffffffffff168473ffffffffffffffffffffffffffffffffffffffff16148061082757508373ffffffffffffffffffffffffffffffffffffffff1661080f846109a6565b73ffffffffffffffffffffffffffffffffffffffff16145b91505092915050565b600061083b82610217565b9050610846826109a6565b506001600260008373ffffffffffffffffffffffffffffffffffffffff1673ffffffffffffffffffffffffffffffffffffffff16815260200190815260200160002060008282546108979190610ffa565b925050819055506001600083815260200190815260200160002060006101000a81549073ffffffffffffffffffffffffffffffffffffffff021916905581600073ffffffffffffffffffffffffffffffffffffffff168273ffffffffffffffffffffffffffffffffffffffff167fddf252ad1be2c89b69c2b068fc378daa952ba7f163c4a11628f55a4df523b3ef60405160405180910390a45050565b6000806001600084815260200190815260200160002060009054906101000a900473ffffffffffffffffffffffffffffffffffffffff169050600073ffffffffffffffffffffffffffffffffffffffff168173ffffffffffffffffffffffffffffffffffffffff161415915050919050565b60006109b182610217565b73ffffffffffffffffffffffffffffffffffffffff166001600084815260200190815260200160002060009054906101000a900473ffffffffffffffffffffffffffffffffffffffff1673ffffffffffffffffffffffffffffffffffffffff1614610a1b57600080fd5b610a2482610217565b9050919050565b600080fd5b60007fffffffff0000000000000000000000000000000000000000000000000000000082169050919050565b610a6581610a30565b8114610a7057600080fd5b50565b600081359050610a8281610a5c565b92915050565b600060208284031215610a9e57610a9d610a2b565b5b6000610aac84828501610a73565b91505092915050565b60008115159050919050565b610aca81610ab5565b82525050565b6000602082019050610ae56000830184610ac1565b92915050565b600073ffffffffffffffffffffffffffffffffffffffff82169050919050565b6000610b1682610aeb565b9050919050565b610b2681610b0b565b8114610b3157600080fd5b50565b600081359050610b4381610b1d565b92915050565b6000819050919050565b610b5c81610b49565b8114610b6757600080fd5b50565b600081359050610b7981610b53565b92915050565b600080600060608486031215610b9857610b97610a2b565b5b6000610ba686828701610b34565b9350506020610bb786828701610b34565b9250506040610bc886828701610b6a565b9150509250925092565b600060208284031215610be857610be7610a2b565b5b6000610bf684828501610b6a565b91505092915050565b610c0881610b0b565b82525050565b6000602082019050610c236000830184610bff565b92915050565b600060208284031215610c3f57610c3e610a2b565b5b6000610c4d84828501610b34565b91505092915050565b610c5f81610b49565b82525050565b6000602082019050610c7a6000830184610c56565b92915050565b60008060408385031215610c9757610c96610a2b565b5b6000610ca585828601610b34565b9250506020610cb685828601610b6a565b9150509250929050565b600082825260208201905092915050565b7f4552433732314275726e61626c653a2063616c6c6572206973206e6f74206f7760008201527f6e6572206e6f7220617070726f76656400000000000000000000000000000000602082015250565b6000610d2d603083610cc0565b9150610d3882610cd1565b604082019050919050565b60006020820190508181036000830152610d5c81610d20565b9050919050565b7f7468652061646472657373206e6f7420636f756c6420626520626c616e6b0000600082015250565b6000610d99601e83610cc0565b9150610da482610d63565b602082019050919050565b60006020820190508181036000830152610dc881610d8c565b9050919050565b7f617070726f76616c20746f2063757272656e74206f776e657200000000000000600082015250565b6000610e05601983610cc0565b9150610e1082610dcf565b602082019050919050565b60006020820190508181036000830152610e3481610df8565b9050919050565b7f63757272656e742063616c6c6572206973206e6f7420746865206f776e657200600082015250565b6000610e71601f83610cc0565b9150610e7c82610e3b565b602082019050919050565b60006020820190508181036000830152610ea081610e64565b9050919050565b7f6572726f7220746f207472616e7366657220746f206365726f2061646472657360008201527f7300000000000000000000000000000000000000000000000000000000000000602082015250565b6000610f03602183610cc0565b9150610f0e82610ea7565b604082019050919050565b60006020820190508181036000830152610f3281610ef6565b9050919050565b7f547279696e6720746f207472616e73666572206120746f6b656e20612074686560008201527f206164647265737320646f6573206e6f74206f776e2100000000000000000000602082015250565b6000610f95603683610cc0565b9150610fa082610f39565b604082019050919050565b60006020820190508181036000830152610fc481610f88565b9050919050565b7f4e487b7100000000000000000000000000000000000000000000000000000000600052601160045260246000fd5b600061100582610b49565b915061101083610b49565b92508282101561102357611022610fcb565b5b828203905092915050565b600061103982610b49565b915061104483610b49565b9250827fffffffffffffffffffffffffffffffffffffffffffffffffffffffffffffffff0382111561107957611078610fcb565b5b828201905092915050565b7f746865736520746f6b656e20646f6e2774206578697374000000000000000000600082015250565b60006110ba601783610cc0565b91506110c582611084565b602082019050919050565b600060208201905081810360008301526110e9816110ad565b905091905056fea2646970667358221220778cf644bb61b5476fa89fdd45ffa6d303d03a29c1a2226852ea9b5cfb43076264736f6c634300080b0033",
  "immutableReferences": {},
  "source": "// SPDX-License-Identifier: MIT\r\npragma solidity ^0.8.0;\r\n\r\nimport \"./ERC165.sol\";\r\n\r\nimport './interfaces/IERC721.sol';\r\n\r\nimport './SafeMath.sol';\r\n\r\ncontract ERC721 is ERC165, IERC721{\r\n    \r\n    using SafeMath for uint256;\r\n    \r\n    mapping (uint256=>address) private _tokenOwner; //these mapping asign a number an any account\r\n    mapping (address=>uint) private _OwnedTokensCount; //these mapping register the number of token assigned of an address\r\n    mapping (uint256=>address) private _tokenApprovals; //approve a token.\r\n\r\n    constructor() {\r\n        _registerInterfaces(bytes4(keccak256('balanceOf(bytes4)')\r\n        ^keccak256('ownerOf(bytes4)')^keccak256('transferFrom(bytes4)')));\r\n    }\r\n\r\n\r\n\r\n    //these function is used for know the number of NFT than a person have.\r\n    function balanceOf(address _owner) public view override returns(uint256){\r\n        require(_owner!=address(0),'the address not could be blank');\r\n        return _OwnedTokensCount[_owner];\r\n    }\r\n\r\n    //obtain the owner address of nft published\r\n    function ownerOf(uint _tokenId)public view override returns(address){\r\n        address owner= _tokenOwner[_tokenId];\r\n        require(owner!=address(0),'the address not could be blank');\r\n        return owner;\r\n    }\r\n\r\n    //these funcion is for evit repit the same NFT could be published\r\n    function _exists (uint256 tokenId)internal view returns(bool){\r\n        //setting the addres of nft owner to check the mapping\r\n        //of the addres from tokenOwner at the tokenId\r\n        address owner=_tokenOwner[tokenId];\r\n        //return truthiness than addres is not zero.\r\n        return owner != address(0);\r\n\r\n    }\r\n    function _mint(address to, uint256 tokenId)internal virtual{\r\n        //requiere que la direccion no este vacia \r\n        require(to !=address(0), 'ERC721: minting to the zero addres');\r\n        //se asegura de que el token no haya sido minado\r\n        require(!_exists(tokenId));\r\n        _tokenOwner[tokenId]= to;\r\n        _OwnedTokensCount[to]+=1; \r\n\r\n        emit Transfer(address(0), to, tokenId);\r\n\r\n    }\r\n\r\n    // @notice Transfer ownership of an NFT -- THE CALLER IS RESPONSIBLE\r\n    //  TO CONFIRM THAT `_to` IS CAPABLE OF RECEIVING NFTS OR ELSE\r\n    ///  THEY MAY BE PERMANENTLY LOST\r\n    // @dev Throws unless `msg.sender` is the current owner, an authorized\r\n    //  operator, or the approved address for this NFT. Throws if `_from` is\r\n    ///  not the current owner. Throws if `_to` is the zero address. Throws if\r\n    ///  `_tokenId` is not a valid NFT.\r\n    // @param _from The current owner of the NFT\r\n    // @param _to The new owner\r\n    // @param _tokenId The NFT to transfer\r\n    function _transferFrom(address _from, address _to, uint256 _tokenId) internal {\r\n        require(_to!=address(0),\"error to transfer to cero address\");\r\n        require(ownerOf(_tokenId)==_from, \"Trying to transfer a token a the address does not own!\");\r\n        _OwnedTokensCount[_from]-=1;\r\n        _OwnedTokensCount[_to]+=1;\r\n        _tokenOwner[_tokenId]=_to;\r\n        emit Transfer(_from, _to, _tokenId);\r\n                \r\n    }\r\n    function transferFrom(address _from, address _to, uint256 _tokenId) override public {\r\n        _transferFrom(_from, _to, _tokenId);\r\n    }\r\n\r\n    function approval(address _to, uint256 _tokenId) public {\r\n\r\n        address owner= ownerOf(_tokenId);\r\n        require(_to!=owner,'approval to current owner');\r\n        require(owner==msg.sender, 'current caller is not the owner');\r\n        _tokenApprovals[_tokenId]=_to;\r\n\r\n        emit Approvals(owner, _to, _tokenId);\r\n\r\n    }\r\n    function isApprovedOrOwner(address spender, uint256 tokenId) internal view returns(bool){\r\n        require(_exists(tokenId),\"these token don't exist\");\r\n        address owner= ownerOf(tokenId);\r\n        return (spender==owner ||getApproved(tokenId)==spender);\r\n    }\r\n\r\n\r\n\r\n    function getApproved(uint256 tokenId) internal view returns(address){\r\n        require(_tokenOwner[tokenId]==ownerOf(tokenId));\r\n        return ownerOf(tokenId);\r\n    }\r\n\r\n    //Funciones adiccionales que no estaban en el curso fueron obtenidas desde los archivos de openzeppelin\r\n\r\n    function _burn(uint256 tokenId) internal virtual {\r\n        address owner = ownerOf(tokenId);\r\n\r\n        // Clear approvals\r\n        getApproved(tokenId);\r\n\r\n        _OwnedTokensCount[owner] -= 1;\r\n        delete _tokenOwner[tokenId];\r\n\r\n        emit Transfer(owner, address(0), tokenId);\r\n\r\n     }\r\n\r\n        function burn(uint256 tokenId) public virtual {\r\n        //solhint-disable-next-line max-line-length\r\n        require(isApprovedOrOwner(msg.sender, tokenId), \"ERC721Burnable: caller is not owner nor approved\");\r\n        _burn(tokenId);\r\n    }\r\n\r\n\r\n    \r\n}",
  "sourcePath": "C:\\Users\\Abraham\\Desktop\\nft-marketplace-starter-kit-main\\nft-marketplace-starter-kit-main\\src\\contracts\\ERC721.sol",
  "compiler": {
    "name": "solc",
    "version": "0.8.11+commit.d7f03943.Emscripten.clang"
  },
  "schemaVersion": "3.4.5",
  "updatedAt": "2022-03-29T03:52:19.560Z",
  "devdoc": {
    "kind": "dev",
    "methods": {
      "supportsInterface(bytes4)": {
        "details": "Interface identification is specified in ERC-165. This function  uses less than 30,000 gas.",
        "params": {
          "interfaceID": "The interface identifier, as specified in ERC-165"
        },
        "returns": {
          "_0": "`true` if the contract implements `interfaceID` and  `interfaceID` is not 0xffffffff, `false` otherwise"
        }
      }
    },
    "version": 1
  },
  "userdoc": {
    "kind": "user",
    "methods": {
      "supportsInterface(bytes4)": {
        "notice": "Query if a contract implements an interface"
      }
    },
    "version": 1
  }
}