{
  "contractName": "ERC721Enumerable",
  "abi": [
    {
      "inputs": [],
      "stateMutability": "nonpayable",
      "type": "constructor"
    },
    {
      "anonymous": false,
      "inputs": [
        {
          "indexed": true,
          "internalType": "address",
          "name": "_owner",
          "type": "address"
        },
        {
          "indexed": true,
          "internalType": "address",
          "name": "_approved",
          "type": "address"
        },
        {
          "indexed": true,
          "internalType": "uint256",
          "name": "_tokenId",
          "type": "uint256"
        }
      ],
      "name": "Approvals",
      "type": "event"
    },
    {
      "anonymous": false,
      "inputs": [
        {
          "indexed": true,
          "internalType": "address",
          "name": "_from",
          "type": "address"
        },
        {
          "indexed": true,
          "internalType": "address",
          "name": "_to",
          "type": "address"
        },
        {
          "indexed": true,
          "internalType": "uint256",
          "name": "_tokenId",
          "type": "uint256"
        }
      ],
      "name": "Transfer",
      "type": "event"
    },
    {
      "inputs": [
        {
          "internalType": "address",
          "name": "_to",
          "type": "address"
        },
        {
          "internalType": "uint256",
          "name": "_tokenId",
          "type": "uint256"
        }
      ],
      "name": "approval",
      "outputs": [],
      "stateMutability": "nonpayable",
      "type": "function"
    },
    {
      "inputs": [
        {
          "internalType": "address",
          "name": "_owner",
          "type": "address"
        }
      ],
      "name": "balanceOf",
      "outputs": [
        {
          "internalType": "uint256",
          "name": "",
          "type": "uint256"
        }
      ],
      "stateMutability": "view",
      "type": "function"
    },
    {
      "inputs": [
        {
          "internalType": "uint256",
          "name": "tokenId",
          "type": "uint256"
        }
      ],
      "name": "burn",
      "outputs": [],
      "stateMutability": "nonpayable",
      "type": "function"
    },
    {
      "inputs": [
        {
          "internalType": "uint256",
          "name": "_tokenId",
          "type": "uint256"
        }
      ],
      "name": "ownerOf",
      "outputs": [
        {
          "internalType": "address",
          "name": "",
          "type": "address"
        }
      ],
      "stateMutability": "view",
      "type": "function"
    },
    {
      "inputs": [
        {
          "internalType": "bytes4",
          "name": "interfaceID",
          "type": "bytes4"
        }
      ],
      "name": "supportsInterface",
      "outputs": [
        {
          "internalType": "bool",
          "name": "",
          "type": "bool"
        }
      ],
      "stateMutability": "view",
      "type": "function"
    },
    {
      "inputs": [
        {
          "internalType": "address",
          "name": "_from",
          "type": "address"
        },
        {
          "internalType": "address",
          "name": "_to",
          "type": "address"
        },
        {
          "internalType": "uint256",
          "name": "_tokenId",
          "type": "uint256"
        }
      ],
      "name": "transferFrom",
      "outputs": [],
      "stateMutability": "nonpayable",
      "type": "function"
    },
    {
      "inputs": [
        {
          "internalType": "uint256",
          "name": "index",
          "type": "uint256"
        }
      ],
      "name": "tokenByIndex",
      "outputs": [
        {
          "internalType": "uint256",
          "name": "",
          "type": "uint256"
        }
      ],
      "stateMutability": "view",
      "type": "function"
    },
    {
      "inputs": [
        {
          "internalType": "address",
          "name": "owner",
          "type": "address"
        },
        {
          "internalType": "uint256",
          "name": "index",
          "type": "uint256"
        }
      ],
      "name": "tokenOfOwnerByIndex",
      "outputs": [
        {
          "internalType": "uint256",
          "name": "",
          "type": "uint256"
        }
      ],
      "stateMutability": "view",
      "type": "function"
    },
    {
      "inputs": [],
      "name": "totalSupply",
      "outputs": [
        {
          "internalType": "uint256",
          "name": "",
          "type": "uint256"
        }
      ],
      "stateMutability": "view",
      "type": "function"
    }
  ],
  "bytecode": "0x60806040523480156200001157600080fd5b50620000437f1584ba3821f2482cfd183eacb8962ebf3b6b7785a696f73fa327cc1d1b8847ba6200013360201b60201c565b620000b87f22c82707ba960a14c7592ffb6b8cfaa073fed0048a84cc7fa41f6b5bd8e7f2e47f3a6eb71757dfc6e784c1459d26270140c2c147d95ca985c80026fc5301c3eca17f8a7e378434598edc36d108689a030cbc9d7d465de4f74c71bae1028eed6a881b18186200013360201b60201c565b6200012d7f8230223f691b981717299fae9549350a0d894555723531f02108b1f522c1a7977f6da5e1284143cdd2d15038a59bde3be031250f00291d64494c12d967b3a4e0c37fc53637662700e6c65104059db8bba34439e0c32483ab7c34e3ccae52c739549518186200013360201b60201c565b6200028e565b63ffffffff60e01b817bffffffffffffffffffffffffffffffffffffffffffffffffffffffff191614156200019f576040517f08c379a000000000000000000000000000000000000000000000000000000000815260040162000196906200026c565b60405180910390fd5b6001600080837bffffffffffffffffffffffffffffffffffffffffffffffffffffffff19167bffffffffffffffffffffffffffffffffffffffffffffffffffffffff1916815260200190815260200160002060006101000a81548160ff02191690831515021790555050565b600082825260208201905092915050565b7f696e76616c696420696e74657266616365207265717565737400000000000000600082015250565b6000620002546019836200020b565b915062000261826200021c565b602082019050919050565b60006020820190508181036000830152620002878162000245565b9050919050565b61139e806200029e6000396000f3fe608060405234801561001057600080fd5b50600436106100935760003560e01c806342966c681161006657806342966c68146101325780634f6ccce71461014e5780636352211e1461017e57806370a08231146101ae57806375247a58146101de57610093565b806301ffc9a71461009857806318160ddd146100c857806323b872dd146100e65780632f745c5914610102575b600080fd5b6100b260048036038101906100ad9190610c65565b6101fa565b6040516100bf9190610cad565b60405180910390f35b6100d0610261565b6040516100dd9190610ce1565b60405180910390f35b61010060048036038101906100fb9190610d86565b61026e565b005b61011c60048036038101906101179190610dd9565b61027e565b6040516101299190610ce1565b60405180910390f35b61014c60048036038101906101479190610e19565b61032e565b005b61016860048036038101906101639190610e19565b610383565b6040516101759190610ce1565b60405180910390f35b61019860048036038101906101939190610e19565b6103f4565b6040516101a59190610e55565b60405180910390f35b6101c860048036038101906101c39190610e70565b6104a6565b6040516101d59190610ce1565b60405180910390f35b6101f860048036038101906101f39190610dd9565b61055e565b005b6000806000837bffffffffffffffffffffffffffffffffffffffffffffffffffffffff19167bffffffffffffffffffffffffffffffffffffffffffffffffffffffff1916815260200190815260200160002060009054906101000a900460ff169050919050565b6000600480549050905090565b6102798383836106fa565b505050565b6000610289836104a6565b82106102ca576040517f08c379a00000000000000000000000000000000000000000000000000000000081526004016102c190610efa565b60405180910390fd5b600660008473ffffffffffffffffffffffffffffffffffffffff1673ffffffffffffffffffffffffffffffffffffffff168152602001908152602001600020828154811061031b5761031a610f1a565b5b9060005260206000200154905092915050565b6103383382610940565b610377576040517f08c379a000000000000000000000000000000000000000000000000000000000815260040161036e90610fbb565b60405180910390fd5b61038081610a0d565b50565b600061038d610261565b82106103ce576040517f08c379a00000000000000000000000000000000000000000000000000000000081526004016103c590610efa565b60405180910390fd5b600482815481106103e2576103e1610f1a565b5b90600052602060002001549050919050565b6000806001600084815260200190815260200160002060009054906101000a900473ffffffffffffffffffffffffffffffffffffffff169050600073ffffffffffffffffffffffffffffffffffffffff168173ffffffffffffffffffffffffffffffffffffffff16141561049d576040517f08c379a000000000000000000000000000000000000000000000000000000000815260040161049490611027565b60405180910390fd5b80915050919050565b60008073ffffffffffffffffffffffffffffffffffffffff168273ffffffffffffffffffffffffffffffffffffffff161415610517576040517f08c379a000000000000000000000000000000000000000000000000000000000815260040161050e90611027565b60405180910390fd5b600260008373ffffffffffffffffffffffffffffffffffffffff1673ffffffffffffffffffffffffffffffffffffffff168152602001908152602001600020549050919050565b6000610569826103f4565b90508073ffffffffffffffffffffffffffffffffffffffff168373ffffffffffffffffffffffffffffffffffffffff1614156105da576040517f08c379a00000000000000000000000000000000000000000000000000000000081526004016105d190611093565b60405180910390fd5b3373ffffffffffffffffffffffffffffffffffffffff168173ffffffffffffffffffffffffffffffffffffffff1614610648576040517f08c379a000000000000000000000000000000000000000000000000000000000815260040161063f906110ff565b60405180910390fd5b826003600084815260200190815260200160002060006101000a81548173ffffffffffffffffffffffffffffffffffffffff021916908373ffffffffffffffffffffffffffffffffffffffff160217905550818373ffffffffffffffffffffffffffffffffffffffff168273ffffffffffffffffffffffffffffffffffffffff167f26163b36b8c330072c04a0a1b97cad1d2aaceabade81788f1ab6cf1eef0c66cc60405160405180910390a4505050565b600073ffffffffffffffffffffffffffffffffffffffff168273ffffffffffffffffffffffffffffffffffffffff16141561076a576040517f08c379a000000000000000000000000000000000000000000000000000000000815260040161076190611191565b60405180910390fd5b8273ffffffffffffffffffffffffffffffffffffffff1661078a826103f4565b73ffffffffffffffffffffffffffffffffffffffff16146107e0576040517f08c379a00000000000000000000000000000000000000000000000000000000081526004016107d790611223565b60405180910390fd5b6001600260008573ffffffffffffffffffffffffffffffffffffffff1673ffffffffffffffffffffffffffffffffffffffff16815260200190815260200160002060008282546108309190611272565b925050819055506001600260008473ffffffffffffffffffffffffffffffffffffffff1673ffffffffffffffffffffffffffffffffffffffff168152602001908152602001600020600082825461088791906112a6565b92505081905550816001600083815260200190815260200160002060006101000a81548173ffffffffffffffffffffffffffffffffffffffff021916908373ffffffffffffffffffffffffffffffffffffffff160217905550808273ffffffffffffffffffffffffffffffffffffffff168473ffffffffffffffffffffffffffffffffffffffff167fddf252ad1be2c89b69c2b068fc378daa952ba7f163c4a11628f55a4df523b3ef60405160405180910390a4505050565b600061094b82610b11565b61098a576040517f08c379a000000000000000000000000000000000000000000000000000000000815260040161098190611348565b60405180910390fd5b6000610995836103f4565b90508073ffffffffffffffffffffffffffffffffffffffff168473ffffffffffffffffffffffffffffffffffffffff161480610a0457508373ffffffffffffffffffffffffffffffffffffffff166109ec84610b83565b73ffffffffffffffffffffffffffffffffffffffff16145b91505092915050565b6000610a18826103f4565b9050610a2382610b83565b506001600260008373ffffffffffffffffffffffffffffffffffffffff1673ffffffffffffffffffffffffffffffffffffffff1681526020019081526020016000206000828254610a749190611272565b925050819055506001600083815260200190815260200160002060006101000a81549073ffffffffffffffffffffffffffffffffffffffff021916905581600073ffffffffffffffffffffffffffffffffffffffff168273ffffffffffffffffffffffffffffffffffffffff167fddf252ad1be2c89b69c2b068fc378daa952ba7f163c4a11628f55a4df523b3ef60405160405180910390a45050565b6000806001600084815260200190815260200160002060009054906101000a900473ffffffffffffffffffffffffffffffffffffffff169050600073ffffffffffffffffffffffffffffffffffffffff168173ffffffffffffffffffffffffffffffffffffffff161415915050919050565b6000610b8e826103f4565b73ffffffffffffffffffffffffffffffffffffffff166001600084815260200190815260200160002060009054906101000a900473ffffffffffffffffffffffffffffffffffffffff1673ffffffffffffffffffffffffffffffffffffffff1614610bf857600080fd5b610c01826103f4565b9050919050565b600080fd5b60007fffffffff0000000000000000000000000000000000000000000000000000000082169050919050565b610c4281610c0d565b8114610c4d57600080fd5b50565b600081359050610c5f81610c39565b92915050565b600060208284031215610c7b57610c7a610c08565b5b6000610c8984828501610c50565b91505092915050565b60008115159050919050565b610ca781610c92565b82525050565b6000602082019050610cc26000830184610c9e565b92915050565b6000819050919050565b610cdb81610cc8565b82525050565b6000602082019050610cf66000830184610cd2565b92915050565b600073ffffffffffffffffffffffffffffffffffffffff82169050919050565b6000610d2782610cfc565b9050919050565b610d3781610d1c565b8114610d4257600080fd5b50565b600081359050610d5481610d2e565b92915050565b610d6381610cc8565b8114610d6e57600080fd5b50565b600081359050610d8081610d5a565b92915050565b600080600060608486031215610d9f57610d9e610c08565b5b6000610dad86828701610d45565b9350506020610dbe86828701610d45565b9250506040610dcf86828701610d71565b9150509250925092565b60008060408385031215610df057610def610c08565b5b6000610dfe85828601610d45565b9250506020610e0f85828601610d71565b9150509250929050565b600060208284031215610e2f57610e2e610c08565b5b6000610e3d84828501610d71565b91505092915050565b610e4f81610d1c565b82525050565b6000602082019050610e6a6000830184610e46565b92915050565b600060208284031215610e8657610e85610c08565b5b6000610e9484828501610d45565b91505092915050565b600082825260208201905092915050565b7f676c6f62616c20696e646578206973206f7574206f6620626f756e6473210000600082015250565b6000610ee4601e83610e9d565b9150610eef82610eae565b602082019050919050565b60006020820190508181036000830152610f1381610ed7565b9050919050565b7f4e487b7100000000000000000000000000000000000000000000000000000000600052603260045260246000fd5b7f4552433732314275726e61626c653a2063616c6c6572206973206e6f74206f7760008201527f6e6572206e6f7220617070726f76656400000000000000000000000000000000602082015250565b6000610fa5603083610e9d565b9150610fb082610f49565b604082019050919050565b60006020820190508181036000830152610fd481610f98565b9050919050565b7f7468652061646472657373206e6f7420636f756c6420626520626c616e6b0000600082015250565b6000611011601e83610e9d565b915061101c82610fdb565b602082019050919050565b6000602082019050818103600083015261104081611004565b9050919050565b7f617070726f76616c20746f2063757272656e74206f776e657200000000000000600082015250565b600061107d601983610e9d565b915061108882611047565b602082019050919050565b600060208201905081810360008301526110ac81611070565b9050919050565b7f63757272656e742063616c6c6572206973206e6f7420746865206f776e657200600082015250565b60006110e9601f83610e9d565b91506110f4826110b3565b602082019050919050565b60006020820190508181036000830152611118816110dc565b9050919050565b7f6572726f7220746f207472616e7366657220746f206365726f2061646472657360008201527f7300000000000000000000000000000000000000000000000000000000000000602082015250565b600061117b602183610e9d565b91506111868261111f565b604082019050919050565b600060208201905081810360008301526111aa8161116e565b9050919050565b7f547279696e6720746f207472616e73666572206120746f6b656e20612074686560008201527f206164647265737320646f6573206e6f74206f776e2100000000000000000000602082015250565b600061120d603683610e9d565b9150611218826111b1565b604082019050919050565b6000602082019050818103600083015261123c81611200565b9050919050565b7f4e487b7100000000000000000000000000000000000000000000000000000000600052601160045260246000fd5b600061127d82610cc8565b915061128883610cc8565b92508282101561129b5761129a611243565b5b828203905092915050565b60006112b182610cc8565b91506112bc83610cc8565b9250827fffffffffffffffffffffffffffffffffffffffffffffffffffffffffffffffff038211156112f1576112f0611243565b5b828201905092915050565b7f746865736520746f6b656e20646f6e2774206578697374000000000000000000600082015250565b6000611332601783610e9d565b915061133d826112fc565b602082019050919050565b6000602082019050818103600083015261136181611325565b905091905056fea2646970667358221220580d9ffc185fe53a7faca6092ee84b8696452630dd2fb8e7e956450089e3da7a64736f6c634300080b0033",
  "immutableReferences": {},
  "source": "// SPDX-License-Identifier: MIT\r\npragma solidity ^0.8.0;\r\n\r\nimport \"./ERC721.sol\";\r\nimport './interfaces/IEC721Enumerable.sol';\r\ncontract ERC721Enumerable is ERC721, IERC721Enumerable{\r\n\r\n    uint256[] private _allTokens;\r\n\r\n    //mapping from TokenId to possition _alltokens\r\n    mapping(uint256=>uint256) private _allTokensIndex;\r\n\r\n    //mapping of owner to list of all owner token ids\r\n    mapping(address=>uint256[]) private _ownedTokens;\r\n\r\n    //mapping from token ID index of owner token list\r\n    mapping(uint256=>uint256) private _ownedTokensIndex;\r\n\r\n\r\n\r\n\r\n    constructor() {\r\n        _registerInterfaces(bytes4(keccak256('totalSupply(bytes4)')\r\n        ^keccak256('tokenByIndex(bytes4)')^keccak256('tokenOfOwnerByIndex(bytes4)')));\r\n    }\r\n\r\n\r\n    //these function is used for create a list assosiate the owner with yours personal tokens and the complete list of tokens en \r\n    //the page\r\n    function _mint(address to, uint256 tokenId) internal override(ERC721){\r\n        super._mint(to, tokenId);\r\n\r\n        _addTokenToTokenEnumeration(tokenId);\r\n        _addtokensToOwnerEnumeration(to, tokenId);\r\n\r\n\r\n    }\r\n\r\n    //these function is used for add the new token to the index.\r\n    function _addTokenToTokenEnumeration(uint256 tokenId) private {\r\n        \r\n        _allTokensIndex[tokenId]=_allTokens.length;\r\n        _allTokens.push(tokenId);\r\n\r\n    }\r\n\r\n\r\n    function tokenByIndex(uint256 index) public override view returns(uint256){\r\n        require(index<totalSupply(), 'global index is out of bounds!');\r\n        return _allTokens[index];\r\n    }\r\n\r\n    //relationship the owner with your token's\r\n    function tokenOfOwnerByIndex(address owner, uint256 index) public override view returns(uint256){\r\n        require(index<balanceOf(owner), 'global index is out of bounds!');\r\n        return _ownedTokens[owner][index];\r\n    }\r\n\r\n    //thes function is used for know the number of token associated to address\r\n    function _addtokensToOwnerEnumeration (address to, uint256 tokenId) private{\r\n        \r\n        _ownedTokensIndex[tokenId]=_ownedTokens[to].length;\r\n        _ownedTokens[to].push(tokenId);\r\n\r\n    }\r\n\r\n    function totalSupply() public override view returns(uint256){\r\n        return _allTokens.length;\r\n    }\r\n\r\n}",
  "sourcePath": "C:\\Users\\Abraham\\Desktop\\nft-marketplace-starter-kit-main\\nft-marketplace-starter-kit-main\\src\\contracts\\ERC721Enumerable.sol",
  "compiler": {
    "name": "solc",
    "version": "0.8.11+commit.d7f03943.Emscripten.clang"
  },
  "schemaVersion": "3.4.5",
  "updatedAt": "2022-03-29T03:52:19.635Z",
  "devdoc": {
    "kind": "dev",
    "methods": {
      "supportsInterface(bytes4)": {
        "details": "Interface identification is specified in ERC-165. This function  uses less than 30,000 gas.",
        "params": {
          "interfaceID": "The interface identifier, as specified in ERC-165"
        },
        "returns": {
          "_0": "`true` if the contract implements `interfaceID` and  `interfaceID` is not 0xffffffff, `false` otherwise"
        }
      }
    },
    "version": 1
  },
  "userdoc": {
    "kind": "user",
    "methods": {
      "supportsInterface(bytes4)": {
        "notice": "Query if a contract implements an interface"
      }
    },
    "version": 1
  }
}